:0400000030EF00F0ED
:060008005F82A6EF2AF062
:100018005F80D8CF60F0E8CF61F0E0CF62F0E1CF49
:1000280063F0E2CF64F0D9CF65F0DACF66F09EAA2C
:1000380003D07AEC2AF09E9A66C0DAFF65C0D9FF31
:1000480064C0E2FF63C0E1FF62C0E0FF61C0E8FF97
:1000580060C0D8FF5F90100034EF25F00001B46B4A
:10006800B56BA30EB66FA6EF05F0250ECA190CE006
:100078009FC0D9FFA0C0DAFFCAC0DFFF9F4BA02BEB
:10008800B44BB52BA6EF05F0C46BC56BC66BC76B3D
:1000980003D0C687A14BA22BA1C0F6FFA2C0F7FFD1
:1000A8000800F5502D0AF5E0A1C0F6FFA2C0F7FF41
:1000B8000800F550ECEC2DF02DE3C46BC56BC4C003
:1000C80067F0C5C068F06A6B0A0E696F85EC2DF0A1
:1000D80067C0C4F068C0C5F0D00EA76FA869A1C0FA
:1000E800F6FFA2C0F7FF0800F550A96FAA6BA75149
:1000F800A927A851AA23A951C427AA51C523A14BAE
:10010800A22BA1C0F6FFA2C0F7FF0800F550ECEC47
:100118002DF0D5E2A1C0F6FFA2C0F7FF0800F55008
:100128002E0A2BE1C78DA14BA22BC86BC96B1AD025
:100138000A0EC803F3CFA7F0F4CFA8F0C903F35011
:10014800A827A1C0F6FFA2C0F7FF0800F550A7270F
:10015800000EA823D00EA725C86FFF0EA821C96FCF
:10016800A14BA22BA1C0F6FFA2C0F7FF0800F550D3
:10017800ECEC2DF001E2A2D0DBD7C86BC96BC789C4
:100188009DD0C6899BD0C785B7D0B651D96EDA6ADB
:10019800DECFB0F0DDCFB1F0020EB627B051B1110D
:1001A80004E1780EB06F7F0EB16FB26BB36B03D002
:1001B8000001B24BB32BB251B025A76FB351B12197
:1001C800A86FA7C0F6FFA8C0F7FFF86A070EF76484
:1001D80003D00800F55005D0F6CFE1FFF7CFE2FFD6
:1001E800E7500009E5E10001C851C91109E0B25121
:1001F800C85DB351C95904E2C8C0B2F0C9C0B3F070
:10020800C451B25DC551B35905E2B251C45FB3518F
:10021800C55B02D0C46BC56BC6B72FD00AD09FC0D0
:10022800D9FFA0C0DAFF200EDF6E9F4BA02BB44B86
:10023800B52BC407D8A0C507C429F1E1C5291DE01D
:10024800EED7B0C0F6FFB1C0F7FFF86A9FC0D9FF7C
:10025800A0C0DAFF070EF76403D00800F55005D0F8
:10026800F6CFE1FFF7CFE2FFE750DF6E0001B04BBA
:10027800B12B9F4BA02BB44BB52BB207D8A0B3071B
:10028800B229DFE1B329DDE1C6A7A6EF05F00AD060
:100298009FC0D9FFA0C0DAFF200EDF6E9F4BA02BB6
:1002A800B44BB52BC407D8A0C507C429F1E1C529AB
:1002B80002E1A6EF05F0ECD7C68D1ED0A1C0F6FF6F
:1002C800A2C0F7FFA14BA22B0800F5CFCAF0CA5174
:1002D80002E1B3EF05F0640A0FE0020A01E153D727
:1002E8000F0A0AE0050A01E14CD71F0A01E14DD7C0
:1002F800060AE2E0A6EF05F0070EC71501E1E5D210
:10030800C7A903D0C96B060EC86FB651D96EDA6A91
:10031800DECFC1F0DECFC2F0DDCFC3F0030EB627CB
:10032800C3AF10D0C1C067F0C2C068F0C3C069F0E5
:1003380034EC2EF067C0C1F068C0C2F069C0C3F0E9
:10034800030EC613BB6BBC6BC151C211C3117CE059
:10035800820EA76FA869C1C0A9F0C2C0AAF0C3C025
:10036800ABF0C4C0ACF0100E05D0D890AC33AB33B2
:10037800AA33A933E82EF9D7A951A725BB6F000ED8
:10038800A821BC6FBB07D8A0BC07BBC067F0BCC026
:1003980068F06A6B030E696F85EC2DF067C0BBF0DF
:1003A80068C0BCF0BBC06DF0BCC06EF0706B0A0ECC
:1003B8006F6F6CEC28F06DC0BBF06EC0BCF0BCAFCA
:1003C80003D0BB07D8A0BC07BB510008EBEC11F069
:1003D80083C0B7F084C0B8F085C0B9F0B7C075F075
:1003E800B8C076F0B9C077F0C1C078F0C2C079F073
:1003F800C3C07AF086EC20F075C0B7F076C0B8F0CC
:1004080077C0B9F0B7C067F0B8C068F0B9C069F094
:100418006A6B800E6B6F3F0E6C6F4EEC2AF004E235
:10042800BB07D8A0BC0710D0B7C067F0B8C068F049
:10043800B9C069F06A6B200E6B6F410E6C6F4EECA1
:100448002AF002E3BB4BBC2BC9BF05D0C9511AE146
:100458000D0EC85D17E2C1C08DF0C2C08EF0C3C0DA
:100468008FF0C8519FEC18F083C090F084C091F0D1
:1004780085C092F046EC1AF08DC0C1F08EC0C2F073
:100488008FC0C3F0BCBF05D0BC511BE10A0EBB5DD9
:1004980018E2C151C211C3114BE0C1C08EF0C2C0F5
:1004A8008FF0C3C090F0D9EC22F08E518F119011CB
:1004B80091113EE1BCBF3CD0BC5103E1020EBB5DD3
:1004C80037E3B7C067F0B8C068F0B9C069F0700E1C
:1004D8006A6F890E6B6F400E6C6F4EEC2AF0F70E48
:1004E800D8B0F80EBB27FF0EBC23BB51EBEC11F0C4
:1004F80083C0B7F084C0B8F085C0B9F0C1C067F058
:10050800C2C068F0C3C069F0B7C06AF0B8C06BF089
:10051800B9C06CF0F1EC20F067C0BDF068C0BEF067
:1005280069C0BFF06AC0C0F0C16BC26BC36B30D08A
:10053800C1C08EF0C2C08FF0C3C090F0D9EC22F0D9
:100548008EC0BDF08FC0BEF090C0BFF091C0C0F0AB
:10055800C1C099F0C2C09AF0C3C09BF0BDC06FF093
:10056800BEC070F0BFC071F0C0C072F050EC2BF08C
:100578006FC09CF070C09DF071C09EF07FEC2CF0B5
:1005880099C0C1F09AC0C2F09BC0C3F0BB6BBC6BF2
:10059800010ECA6FCA51040D040EF324F66E7D0EC7
:1005A800F420F76E0900F550BD5D0900F550BE59FD
:1005B8000900F550BF590900F550C05904E3CA2B8A
:1005C8000A0ECA19E7E1CAC0A7F0A86BA7BFA80717
:1005D800C851A727C951A823BB51A727BC51A82395
:1005E800A751C45FA851C55BC851C91103E0C4072E
:1005F800D8A0C507C6C0A7F0030EA71703E0C40715
:10060800D8A0C507C6B714D00DD09FC0D9FFA0C0C9
:10061800DAFF200EDF6E9F4BA02BB44BB52BC4071F
:10062800D8A0C507C5BF04D0C551EFE1C405EDE2A8
:10063800C6C0A7F0030EA7174FE09FC0D9FFA0C000
:10064800DAFF2D0EDF6E9F4BA02BB44BB52B44D099
:10065800BDC067F0BEC068F0BFC069F0C0C06AF036
:10066800CA51040D040EF324F66E7D0EF420F76EC5
:100678000900F5CF6BF00900F5CF6CF00900F5CF54
:100688006DF00A00F5CF6EF0A8EC28F067C0B7F05F
:1006980068C0B8F069C0B9F06AC0BAF0B7C074F001
:1006A800B8C075F0B9C076F0BAC077F00A0E786FA6
:1006B800796B7A6B7B6B1DEC2AF074C0B7F075C050
:1006C800B8F076C0B9F077C0BAF0B751300F9FC014
:1006D800D9FFA0C0DAFFB6D7CA07CA290EE0B8D733
:1006E8009FC0D9FFA0C0DAFF300EDF6E9F4BA02B52
:1006F800B44BB52BBB07D8A0BC07BCBF04D0BC51BA
:10070800EFE1BB05EDE2C9BF08D0C95103E1090E0D
:10071800C85D03E3080ECA6F02D0C8C0CAF0CA5148
:10072800C85F000ECABFFF0EC95BCA510AE09FC06E
:10073800D9FFA0C0DAFF2E0EDF6E9F4BA02BB44B63
:10074800B52BCA51EBEC11F083C0ADF084C0AEF00C
:1007580085C0AFF0C1C078F0C2C079F0C3C07AF0EC
:10076800ADC075F0AEC076F0AFC077F086EC20F083
:1007780075C08EF076C08FF077C090F0D9EC22F07B
:100788008EC0BDF08FC0BEF090C0BFF091C0C0F069
:100798006ED0BDC067F0BEC068F0BFC069F0C0C011
:1007A8006AF0CA51040D040EF324F66E7D0EF4208F
:1007B800F76E0900F5CF6BF00900F5CF6CF0090072
:1007C800F5CF6DF00A00F5CF6EF0A8EC28F067C001
:1007D800B7F068C0B8F069C0B9F06AC0BAF0B7C07D
:1007E80074F0B8C075F0B9C076F0BAC077F00A0EE8
:1007F800786F796B7A6B7B6B1DEC2AF074C0B7F05D
:1008080075C0B8F076C0B9F077C0BAF0B751300FFC
:100818009FC0D9FFA0C0DAFFDF6E9F4BA02BB44B5F
:10082800B52BBDC074F0BEC075F0BFC076F0C0C0B7
:1008380077F0CA51040D040EF324F66E7D0EF420F1
:10084800F76E0900F5CF78F00900F5CF79F00900C7
:10085800F5CF7AF00A00F5CF7BF01DEC2AF074C0D2
:10086800BDF075C0BEF076C0BFF077C0C0F0CA0753
:10087800CA290EE08ED79FC0D9FFA0C0DAFF300E7C
:10088800DF6E9F4BA02BB44BB52BC807D8A0C90768
:10089800C851C911F0E1C6B7C5BF54D1C55103E16C
:1008A800C40501E24FD19FC0D9FFA0C0DAFF200ED6
:1008B800DF6E9F4BA02BB44BB52BC407D8A0C50740
:1008C800C451C51101E13ED1EED7C6BD2AD0C6A993
:1008D8000DD0B651D96EDA6ADECFBDF0DECFBEF0EC
:1008E800DECFBFF0DECFC0F0040E0DD0B651D96E0A
:1008F800DA6ADECFBDF0DDCFBEF0000EBEBFFF0E60
:10090800BF6FC06F020EB627C0AF29D0030EC61343
:10091800C01FBF1FBE1FBD6D000EBE23BF23C02357
:100928001ED0C6A90DD0B651D96EDA6ADECFBDF099
:10093800DECFBEF0DECFBFF0DECFC0F0040E0ED0AB
:10094800B651D96EDA6ADECFA7F0DDCFA8F0A7C01E
:10095800BDF0A8C0BEF0BF6BC06B020EB627C85171
:10096800C91107E1BD51BE11BF11C01102E1C84B49
:10097800C92B010ECA6FCA51040D040EF324F66E7A
:100988007D0EF420F76E0900F550BD5D0900F550A5
:10099800BE590900F550BF590900F550C05904E384
:1009A800CA2B0A0ECA19E7E1800ECABF7F0EA76FCD
:1009B800C851CA5DC951800AA75903E2C8C0CAF024
:1009C8000FD0C951800AA76FCA51C85D800ECABF2F
:1009D8007F0EA75905E2CA51C86FC96BC8BFC907BE
:1009E800C451C51108E0C6C0A7F0030EA71703E05D
:1009F800C407D8A0C507C7AD10D0C451C85DC95138
:100A0800800AA76FC551800AA75905E2C851C45F7B
:100A1800C951C55B02D0C46BC56B800ECABF7F0EBF
:100A2800A76FC451CA5DC551800AA75907E2CA51C8
:100A3800C45F000ECABFFF0EC55B02D0C46BC56B96
:100A4800C451C51112E0C6B710D09FC0D9FFA0C0CD
:100A5800DAFF200EDF6E9F4BA02BB44BB52BC407DB
:100A6800D8A0C507C451C511F0E1C6C0A7F0030E50
:100A7800A7174AE09FC0D9FFA0C0DAFF2D0EDF6E8E
:100A88009F4BA02BB44BB52B3FD0C8C0A7F0C9C013
:100A9800A8F0D890A737A837D890A737A837040E5A
:100AA800A725F66E7D0EA821F76E0900F5CF6BF02D
:100AB8000900F5CF6CF00900F5CF6DF00A00F5CF0D
:100AC8006EF0BDC067F0BEC068F0BFC069F0C0C0BE
:100AD8006AF0A8EC28F067C074F068C075F069C0C7
:100AE80076F06AC077F00A0E786F796B7A6B7B6B59
:100AF8001DEC2AF07451300FCA6F9FC0D9FFA0C0F7
:100B0800DAFFCAC0DFFFBCD7C807D8A0C907C82901
:100B1800BCE1C929BAE1C6B7C5BF14D0C55102E1C5
:100B2800C40510E39FC0D9FFA0C0DAFF200EDF6E16
:100B38009F4BA02BB44BB52BC407D8A0C507C451F5
:100B4800C511F0E1A1C0F6FFA2C0F7FFA14BA22B8F
:100B58000800F5CFCAF0CA5102E039EF00F09FC093
:100B6800D9FFA0C0DAFFDF6AB4C09FF0B5C0A0F01B
:100B7800000C8CC0A8F08DC0A9F08E518C25946F04
:100B88008F518D21956FFF0E9425A06FFF0E952133
:100B9800A16FC2D390C0F6FF91C0F7FF0001904B40
:100BA800912B0800F550250A01E098D39B0EA26FFF
:100BB800020EA36F15D3FD0EA26F7F0EA1D120EEFA
:100BC8000CF09251D9269351DA22DECF94F0DDCF82
:100BD80095F0D89094379537BE0E9425D96E010EAE
:100BE80035D020EE0CF09251D9269351DA22DECF7F
:100BF80094F0DDCF95F0D89094379537B00E9425C2
:100C0800D96E010E23D020EE08F09251D9269351C7
:100C1800DA22DECF94F0DDCF95F0D890943795376F
:100C2800980E9425D96E010E11D020EE08F092513D
:100C3800D9269351DA22DECF94F0DDCF95F0D89003
:100C480094379537B50E9425D96E020E9521DA6E34
:100C5800A4D2AB0E756F7E0E766F20EE0CF092511B
:100C6800D9269351DA22DECF94F0DDCF95F0D890D3
:100C780094379537BE0E9425D96E010E9521DA6EFC
:100C8800DECF77F0DDCF78F020EE08F09251D9264C
:100C98009351DA22DECF96F0DDCF97F0D8909637D1
:100CA8009737980E9625D96E010E9721DA6EDECF0A
:100CB80079F0DDCF7AF020EE06F09251D9269351E3
:100CC800DA22DECF7BF0DDCF7CF081EC19F02AD080
:100CD8000001A051A8190CE1A151A91909E1A0C06E
:100CE800D9FFA1C0DAFF000EDF6A8C6B8D6B120092
:100CF800A2C0F6FFA3C0F7FFF86AA8C0D9FFA9C031
:100D0800DAFF070EF76403D00800F55005D0F6CFD8
:100D1800E1FFF7CFE2FFE750DF6E0001A24BA32B04
:100D2800A84BA92BA2C0F6FFA3C0F7FFF86A070ECD
:100D3800F76403D00800F55005D0F6CFE1FFF7CFF0
:100D4800E2FFE7500009C4E15A0E0001756F7E0EFC
:100D5800766F20EE04F09251D9269351DA22DECF35
:100D680077F0DDCF78F020EE02F09251D92693513A
:100D7800DA22DECF79F0DDCF7AF092C0D9FF93C0C6
:100D8800DAFFDECF7BF0DDCF7CF020EE0AF0925167
:100D9800D9269351DA22DECF94F0DDCF95F06C0E90
:100DA80094257D6F070E95217E6F81EC19F083D213
:100DB8000B0E756F7F0E766F20EE06F09251D926D6
:100DC8009351DA22DECF77F0DDCF78F081EC19F09D
:100DD80072D20B0E756F7F0E766F20EE04F0925173
:100DE800D9269351DA22DECF77F0DDCF78F081EC87
:100DF80019F061D220EE04F09251D9269351DA22EB
:100E0800DECF67F0DDCF68F06A6B0C0E696F52ECCD
:100E180029F06751681104E19D6B0C0E9C6F13D08B
:100E280020EE04F09251D9269351DA22DECF67F0F2
:100E3800DDCF68F06A6B0C0E696F52EC29F067C061
:100E48009CF068C09DF00B0E756F7F0E766F9CC08E
:100E580077F09DC078F081EC19F02DD2F10E756F06
:100E68007F0E766F20EE0EF09251D9269351DA223A
:100E7800DECF94F0DDCF95F09429776F000E9521A1
:100E8800786F81EC19F017D20B0E756F7F0E766FA5
:100E980020EE08F09251D9269351DA22DECF94F051
:100EA800DDCF95F09429776F000E9521786F81EC4E
:100EB80019F001D20B0E756F7F0E766F20EE02F0DF
:100EC8009251D9269351DA22DECF77F0DDCF78F030
:100ED80081EC19F0F0D120EE04F09251D92693510B
:100EE800DA22010EDBBE05D0DB5007E10C0EDE5C1A
:100EF80004E2F40EA26F7F0E03D0F70EA26F7F0EEE
:100F0800A36FD9D10B0E756F7F0E766F92C0D9FF84
:100F180093C0DAFFDECF77F0DDCF78F081EC19F0FF
:100F2800CAD120EE0EF09251D9269351DA22DECFA3
:100F380075F0DDCF76F0786B070E776F76EC2BF0D7
:100F480075C0A4F076C0A5F077C0A6F078C0A7F069
:100F580020EE0CF09251D9269351DA22A451DE5C8E
:100F6800DE50800A966FA551800A965902E2A64B78
:100F7800A72B0B0E756F7F0E766FA6C077F0A7C0F4
:100F880078F081EC19F097D120EE0EF09251D92625
:100F98009351DA22DECF75F0DDCF76F0786B070E4D
:100FA800776F76EC2BF075C0A4F076C0A5F077C00B
:100FB800A6F078C0A7F020EE0CF09251D9269351F4
:100FC800DA22DECF67F0DDCF68F06A6B070E696F53
:100FD80052EC29F0A451675D6851800A946FA551BD
:100FE800800A945902E2A64BA72B0B0E756F7F0E51
:100FF800766FA6C077F0A7C078F081EC19F05BD1C6
:10100800EE0E756F7F0E766F20EE0CF09251D9269A
:101018009351DA22DECF77F0DDCF78F081EC19F04A
:101028004AD1EB0E756F7D0E766F20EE0CF0925163
:10103800D9269351DA22DECF94F0DDCF95F0D890FF
:1010480094379537BE0E9425D96E010E9521DA6E28
:10105800DECF77F0DDCF78F020EE08F09251D92678
:101068009351DA22DECF96F0DDCF97F0D8909637FD
:101078009737980E9625D96E010E9721DA6EDECF36
:1010880079F0DDCF7AF020EE06F09251D92693510F
:10109800DA22DECF7BF0DDCF7CF020EE0AF0925131
:1010A800D9269351DA22DECF98F0DDCF99F06C0E75
:1010B80098257D6F070E99217E6F81EC19F0FBD082
:1010C800050E756F7F0E766F20EE04F09251D926CB
:1010D8009351DA22DECF77F0DDCF78F020EE02F000
:1010E8009251D9269351DA22DECF79F0DDCF7AF00A
:1010F80092C0D9FF93C0DAFFDECF7BF0DDCF7CF062
:1011080081EC19F0D8D020EE0AF09251D9269351EB
:10111800DA22DECF67F0DDCF68F06A6B640E696FA4
:1011280052EC29F067C09AF068C09BF00B0E756FFF
:101138007F0E766F9AC077F09BC078F081EC19F03B
:10114800BAD0F60E756F7D0E766F20EE0AF09251CA
:10115800D9269351DA22DECF94F0DDCF95F06C0ECC
:101168009425776F070E9521786F81EC19F0A3D03D
:1011780020EE10F09251D9269351DA22DE50DE107B
:1011880004E1DA0E9E6F010E03D0DC0E9E6F010E95
:101198009F6F9EC0D9FF9FC0DAFFDECFA2F0DDCFE0
:1011A800A3F089D0250E02019B6F0001946995690F
:1011B80090C096F091C097F0945196279551972337
:1011C80096C0F6FF97C0F7FF0800F5CF9CF2020122
:1011D8009D6B9C5170E100019007D8A091076BD0DE
:1011E80090C0F6FF91C0F7FF904B912B0800F55087
:1011F800250A01E1E0D4640A01E1F3D4030A01E11C
:1012080014D50A0A01E1E5D5010A01E1F3D5040A7A
:1012180001E150D61E0A01E175D6060A01E181D620
:10122800020A01E1B1D60F0A01E14AD7010A89E0B1
:10123800030A9EE03B0A01E1C2D4030A01E1E3D4B8
:10124800010A01E106D5070A01E1B2D50E0A01E15A
:1012580005D6070A01E118D61D0A01E13CD6070A9E
:1012680001E1CED60F0A01E1DCD6010A01E14BD734
:1012780099D70001A051A81904E1A151A91901E1C8
:101288002ED5A2C0F6FFA3C0F7FFF86AA8C0D9FF01
:10129800A9C0DAFF070EF76403D00800F55005D09F
:1012A800F6CFE1FFF7CFE2FFE750DF6E0001A24B78
:1012B800A32BA84BA92BA2C0F6FFA3C0F7FFF86A7F
:1012C800070EF76403D00800F55005D0F6CFE1FF0C
:1012D800F7CFE2FFE75000091FE0CBD7A051A819CC
:1012E80004E1A151A91901E1FAD49469956990C062
:1012F80096F091C097F0945196279551972396C0F0
:10130800F6FF97C0F7FFA8C0D9FFA9C0DAFF080009
:10131800F5CFDFFFA84BA92B90C0F6FF91C0F7FFD0
:101328000800F55001E036D4A8C0D9FFA9C0DAFFFB
:10133800DF6A00018C51A85D8C6F8D51A9598D6FA2
:10134800120001011C5112E0770E0001676F010EB7
:10135800686FC90E696F7E0E6A6FE3EC2BF0770E2B
:101368000101D66F010ED76F1C6BD96982B24AD0C2
:10137800492B000E4A234B234C234C5108E1810E84
:10138800495D1A0E4A59060E4B5901E255D362516E
:1013980001E152D3626B496B4A6B4B6B4C6BD6C104
:1013A800D9FFD7C1DAFFDF5001E046D3300ED86548
:1013B80001D0D86FE60E0001CB6F010ECC6FCE6B5B
:1013C800CD6BE60E9F6F010EA06F4D0EA16F7E0EC6
:1013D800A26FD8C1A3F0A46B32EC00F09F51CF6F7D
:1013E8003FEC0DF0770E676F010E686FE60E696FC0
:1013F800010E6A6FE3EC2BF0770E0101D66F010E38
:10140800D76F1AD34C514B1105E1B90E495D0B0E3C
:101418004A5914E34C514B1111E1200E495D4E0E0F
:101428004A590CE2625107E0D82B300ED86504D037
:10143800010ED86F01D0632BD96B19D04C514B11C9
:1014480005E1310E495D750E4A5911E34C510FE122
:10145800400E495D0D0E4A59030E4B5908E2D96BEF
:101468001F5105E16251010ED8A4000E626F496B4D
:101478004A6B4B6B4C6BE0D2000E00017E6F010E85
:101488007F6F0CEC2DF07EC0DEF17FC0DFF1E60E41
:10149800CB6F010ECC6FCE6BCD6BE60E8C6F010E51
:1014A8008D6F8F6B0F0E8E6FAF0E906F7D0E916FDD
:1014B800DEC192F0DFC193F0BDEC05F08C51CF6F27
:1014C8003FEC0DF0610EF66E7C0EF76E0800F550DD
:1014D800E5EC24F0C7D2625112E0F90E0001CB6F9F
:1014E8007D0ECC6FCE6BCD6BF90E676F7D0E686F7E
:1014F800F7EC2CF06751CF6F3FEC0DF02DD0090EB3
:10150800286104D028C1E0F1E16B03D0E16B080E3B
:10151800E06FE60E0001CB6F010ECC6FCE6BCD6B8A
:10152800E60E9F6F010EA06FFA0EA16F7F0EA26FDD
:10153800D8900101E035D96EE135DA6ECD0ED926A5
:10154800020EDA22DECFA3F0DDCFA4F032EC00F0F9
:101558009F51CF6F3FEC0DF0620EF66E7C0EF76E6A
:101568000800F550E5EC24F07DD2625119E0E60E52
:101578000001CB6F010ECC6FCE6BCD6BE60E9F6F6B
:10158800010EA06F8F0EA16F7D0EA26FD8C1A3F0C0
:10159800A46B32EC00F09F51CF6F3FEC0DF0BFD041
:1015A8000B510C110D110E115BE00E510D1105E1DF
:1015B800110E0B5D0E0E0C5935E30BC167F00CC113
:1015C80068F00DC169F00EC16AF03C0E00016B6F46
:1015D8006C6B6D6B6E6BA8EC28F067C0E2F168C0AD
:1015E800E3F169C0E4F16AC0E5F1E60ECB6F010EE4
:1015F800CC6FCE6BCD6BE60E9F6F010EA06FF10E18
:10160800A16F7E0EA26FE2C1A3F0E3C1A4F0E4C112
:10161800A5F0E5C1A6F032EC00F09F51CF6F3FEC8A
:101628000DF07DD0E60E0001CB6F010ECC6FCE6BB6
:10163800CD6BE60E9F6F010EA06FD30EA16F7E0ECD
:10164800A26F0BC1A3F00CC1A4F00DC1A5F00EC18F
:10165800A6F032EC00F09F51CF6F3FEC0DF05FD059
:101668001F515BE040513F1105E1110E3D5D0E0E2B
:101678003E5935E33DC167F03EC168F03FC169F0AE
:1016880040C16AF03C0E00016B6F6C6B6D6B6E6B4A
:10169800A8EC28F067C0E2F168C0E3F169C0E4F1A2
:1016A8006AC0E5F1E60ECB6F010ECC6FCE6BCD6B49
:1016B800E60E9F6F010EA06FCD0EA16F7D0EA26F7B
:1016C800E2C1A3F0E3C1A4F0E4C1A5F0E5C1A6F02E
:1016D80032EC00F09F51CF6F3FEC0DF020D0E60EBA
:1016E8000001CB6F010ECC6FCE6BCD6BE60E9F6FFA
:1016F800010EA06FBE0EA16F7D0EA26F3DC1A3F0BB
:101708003EC1A4F03FC1A5F040C1A6F032EC00F004
:101718009F51CF6F3FEC0DF002D041EC2EF0630EDD
:10172800F66E7C0EF76E0800F550E5EC24F09AD1C1
:1017380063A121D183D0E60ECB6F010ECC6FCE6BA7
:10174800CD6BE60E9F6F010EA06F7D0EA16F7D0E13
:10175800A26F20C1A3F0A46B06C1A5F0A66B32EC62
:1017680000F09F51CF6F3FEC0DF0640EF66E7C0ECB
:10177800F76E0800F550E5EC24F013D1E60ECB6FB8
:10178800010ECC6FCE6BCD6BE60E9F6F010EA06F76
:10179800070EA16F7E0EA26F24C1A3F025C1A4F08D
:1017A80026C1A5F032EC00F09F51CF6F3FEC0DF051
:1017B800650EF66E7C0EF76E0800F550E5EC24F029
:1017C800F0D00101325116E1D6C1D9FFD7C1DAFFF5
:1017D800DF5010E1770E0001676F010E686F8A0E07
:1017E800696F7E0E6A6FE3EC2BF0770E0101D66FFE
:1017F800010ED76FE60E0001CB6F010ECC6FCE6BDA
:10180800CD6BE60E9F6F010EA06F660EA16F7E0E68
:10181800A26F2DC1A3F02EC1A4F02FC1A5F032EC08
:1018280000F09F51CF6F3FEC0DF0660EF66E7C0E08
:10183800F76E0800F550E5EC24F0B3D00001E86934
:10184800E9690101D9510001EA6FEB6BE851EA2718
:10185800E951EB23EB5101E0A4D0EA51030A01E17D
:101868006AD7070A8BE0010AACE09BD0010142511C
:1018780016E0D6C1D9FFD7C1DAFFDF5010E1770EE5
:101888000001676F010E686F3B0E696F7F0E6A6F0C
:10189800E3EC2BF0770E0101D66F010ED76FE60E41
:1018A8000001CB6F010ECC6FCE6BCD6BE60E9F6F38
:1018B800010EA06FDD0EA16F7E0EA26F33C1A3F0E3
:1018C80034C1A4F035C1A5F036C1A6F032EC00F061
:1018D8009F51CF6F3FEC0DF0640EF66E7C0EF76EE5
:1018E8000800F550E5EC24F05CD0E60ECB6F010E55
:1018F800CC6FCE6BCD6BE60E9F6F010EA06FE70E1F
:10190800A16F7E0EA26F37C1A3F038C1A4F039C110
:10191800A5F03AC1A6F032EC00F09F51CF6F3FEC32
:101928000DF0650EF66E7C0EF76E0800F550E5ECCE
:1019380024F037D0E60ECB6F010ECC6FCE6BCD6B9B
:10194800E60E9F6F010EA06F950EA16F7E0EA26F1F
:101958003BC1A3F03CC1A4F032EC00F09F51CF6F23
:101968003FEC0DF0660EF66E7C0EF76E0800F55033
:10197800E5EC24F016D00001E869E9690101D951C4
:101988000001EA6FEB6BE851EA27E951EB23EB51D1
:1019980008E1EA51030A01E169D7070AA6E0010A4A
:1019A800C9E001010AB102D08A9801D08A880101F0
:1019B80008B102D0899001D0898054D0D6C1D9FF0E
:1019C800D7C1DAFFDF501DE0100ED6250001E86F01
:1019D800000E0101D7210001E96FE8510101D65D30
:1019E8000001E9510101D7590CE2D6C1D9FFD7C18D
:1019F800DAFFDF506EEC2EF0000903E00101D64B50
:101A0800D72B01014D51001909E14E51011906E189
:101A18004F51021903E1505103190CE0D96B642BA3
:101A280064C1E8F02F0E0001E8171CE1010E010166
:101A3800426F18D0D90716D0D92BD90501E11CD58A
:101A4800010A01E148D5030A01E18FD5010A01E144
:101A58006FD6070A01E16CD6010A01E169D6030ACB
:101A6800A0E0ACD700C14DF101C14EF102C14FF168
:101A780003C150F11200000E676F060E686F6A6BA3
:101A8800696B6C6BE00E6B6F21EC2DF0CBC0E1F055
:101A9800CCC0E2F0CDC0D0F0CEC0D1F0D890D133D8
:101AA800D033D890D133D033D890D133D033D0512C
:101AB800E36FCFC0E4F0410ED06FFC0ED16FCBC006
:101AC800F6FFCCC0F7FFF86A070EF76403D00800EA
:101AD800F55005D0F6CFE1FFF7CFE2FFE7501E0D36
:101AE8000001D051F326D151F422C10EF324F66E31
:101AF8006F0EF420F76E0800F5CFE5F0E76BE551BF
:101B080001E11200E3C0CDF0CE6BE4C0CFF0E66B8C
:101B180017D2E6C0D0F0070ED01701E150D1E75137
:101B2800100DD069D169000ED26F060ED36FD05157
:101B3800D227D151D323F350D227F450D323CD51F8
:101B4800D225D96ECE51D321DA6EE751100DD46962
:101B5800D569000ED66F060ED76FD451D627D5514A
:101B6800D723F350D627F450D723CD51D625E16E8D
:101B7800CE51D721E26EE750D86FE6C0D9F0070EF4
:101B8800D917420EDA6FFC0EDB6FE751DC6FDD6BA5
:101B9800D890DC37DD37CBC0F6FFCCC0F7FFF86A4A
:101BA800070EF76403D00800F55005D0F6CFE1FF23
:101BB800F7CFE2FFE7501E0DC10E0001DE6F6F0E7A
:101BC800DF6FF350DE27F450DF23DC51DE27DD51D1
:101BD800DF23DA51DE27DB51DF23DEC0F6FFDFC06B
:101BE800F7FF0800F5CFE0F0D92B02D0D890E0330A
:101BF800D92FFCD70001E051D811DF6EE751100D45
:101C0800000ED06F060ED16FF350D027F450D123B9
:101C1800CD51D025D96ECE51D121DA6EE6C0D2F0A1
:101C2800070ED217430ED36FFC0ED46FCBC0F6FF4E
:101C3800CCC0F7FFF86A070EF76403D00800F55028
:101C480005D0F6CFE1FFF7CFE2FFE7501E0DC10E3A
:101C58000001D56F6F0ED66FF350D527F450D623F9
:101C6800E751020DF350D527F450D623D351D52789
:101C7800D451D623D5C0F6FFD6C0F7FF0800F5CF5C
:101C8800D7F0D22B02D0D890D733D22FFCD7E6C0CA
:101C9800D8F0070E0001D817D8510808D96F420E9E
:101CA800DA6FFC0EDB6FE751DC6FDD6BD890DC3749
:101CB800DD37CBC0F6FFCCC0F7FFF86A070EF76434
:101CC80003D00800F55005D0F6CFE1FFF7CFE2FFCB
:101CD800E7501E0DC10E0001DE6F6F0EDF6FF3506F
:101CE800DE27F450DF23DC51DE27DD51DF23DA5114
:101CF800DE27DB51DF23DEC0F6FFDFC0F7FF080079
:101D0800F5CFE0F0D92B02D0D890E037D92FFCD707
:101D18000001E051D711DF6EE751100D000ED06FB2
:101D2800060ED16FD02B000ED123F350D027F450DC
:101D3800D123CD51D025D96ECE51D121DA6EE6C04E
:101D4800D2F0070ED217D2510808D36F430ED46FC2
:101D5800FC0ED56FCBC0F6FFCCC0F7FFF86A070EB4
:101D6800F76403D00800F55005D0F6CFE1FFF7CFB0
:101D7800E2FFE7501E0DC10E0001D66F6F0ED76F40
:101D8800F350D627F450D723E751020DF350D62746
:101D9800F450D723D451D627D551D723D6C0F6FF30
:101DA800D7C0F7FF0800F5CFD8F0D32B02D0D890D2
:101DB800D837D32FFCD70001D851DF6E85D0420E1B
:101DC800D06FFC0ED16FE751D26FD36BD890D2375A
:101DD800D337CBC0F6FFCCC0F7FFF86A070EF7641D
:101DE80003D00800F55005D0F6CFE1FFF7CFE2FFAA
:101DF800E7501E0DC10E0001D46F6F0ED56FF35062
:101E0800D427F450D523D251D427D351D523D05138
:101E1800D427D151D523D4C0F6FFD5C0F7FFE75159
:101E2800100D000ED66F060ED76FF350D627F4505C
:101E3800D723CD51D625D96ECE51D721DA6E0800D9
:101E4800F5CFDFFF430ED06FFC0ED16FCBC0F6FF8E
:101E5800CCC0F7FFF86A070EF76403D00800F55006
:101E680005D0F6CFE1FFF7CFE2FFE7501E0DC10E18
:101E78000001D26F6F0ED36FF350D227F450D323E3
:101E8800E751020DF350D227F450D323D051D22773
:101E9800D151D323D2C0F6FFD3C0F7FFE751100DBD
:101EA800000ED46F060ED56FD42B000ED523F35039
:101EB800D427F450D523CD51D425D96ECE51D52170
:101EC800DA6E0800F5CFDFFF400ED06FFC0ED16F41
:101ED800CBC0F6FFCCC0F7FFF86A070EF76403D053
:101EE8000800F55005D0F6CFE1FFF7CFE2FFE75045
:101EF8001E0D0001D051F326D151F422C10EF32456
:101F0800F66E6F0EF420F76E0800F550E625D26FD6
:101F1800D229E66FE651D06FD16B070ED027000E9D
:101F2800D123D135D133D033D135D133D033D13595
:101F3800D133D033D0C0CDF0D1C0CEF0CB4BCC2BE9
:101F4800CF07CF2901E0E5D5E1C0CBF0E2C0CCF066
:101F5800E72BE551E75D01E2D5D5120000019A6B48
:101F680035D015503F0B8F6F906B000E8F25D96EB3
:101F7800020E9021DA6E400EFE25E16EE26A020E34
:101F8800E222DFCFE7FFFE2B000E1524D96EDA6AB6
:101F9800020EDA22240EDE1804E1010E166EFE6B24
:101FA80012D0000E1524D96EDA6A020EDA220A0E51
:101FB800DE1809E1160405E140C29AF0020E166E19
:101FC80009D0FE6B166A15283F0B156E1B503F0B88
:101FD8001518C7E1020E1618D8A41200166AE3D124
:101FE800460E6D6F020E6E6F9F0E6F6F706B726B89
:101FF8000A0E716FA9EC16F06DC000F16EC001F108
:102008006FC002F170C003F19FC06DF0A0C06EF008
:102018009F0E6F6F706B726B0A0E716FA9EC16F0E2
:102028006D510101046F056B045100018F6F0101AF
:1020380005510001906F916B926B8F510101005D0A
:102048000001936F9051010101590001946F915162
:10205800010102590001956F9251010103590001D4
:10206800966F800E93250101006F970E0001942151
:102078000101016F060E000195210101026F000E9A
:10208800000196210101036F9FC06DF0A0C06EF0A2
:1020980000016F6B706B726B0A0E716FA9EC16F012
:1020A8006D510101066F1200400E6B6F020E6C6FCE
:1020B8007F0E6D6F7F0E6E6F7F0E676F7F0E686F7E
:1020C800F7EC2CF067C06FF068C070F01EEC29F0D8
:1020D8006B516C110AE1010E01011C6F326B076B29
:1020E800276B116B010E426F010C400E6B6F020ED5
:1020F8006C6F860E6D6F7F0E6E6F860E676F7F0E2C
:10210800686FF7EC2CF067C06FF068C070F01EECD9
:1021180029F06B516C11D8A41200470E6D6F020E96
:102128006E6FA10E6F6F706B726B0A0E716FA9ECF8
:1021380016F06DC033F16EC034F16FC035F170C068
:1021480036F1A1C06DF0A2C06EF0A10E6F6F706B7A
:10215800726B0A0E716FA9EC16F06DC037F16EC084
:1021680038F16FC039F170C03AF1A1C06DF0A2C06A
:102178006EF0A10E6F6F706B726B0A0E716FA9EC27
:1021880016F06DC03BF16EC03CF10101426B1200CC
:10219800470E676F020E686F6A6B200E696FB5ECA9
:1021A8002CF067C09BF068C09CF09BC06DF09CC091
:1021B8006EF09B0E6F6F706B726B0A0E716FA9ECED
:1021C80016F06D510101286F0001856B866B9BC06D
:1021D80083F09CC084F0E4EC13F083C097F084C0D3
:1021E80098F085C099F097C075F098C076F099C0BE
:1021F80077F0120E786F830E796F380E7A6F86EC4F
:1022080020F075C02DF176C02EF177C02FF1010EA8
:102218000101326F010C310E02014A19010ED8A4D6
:10222800000E01011F6F4C0E00016D6F020E6E6FE4
:102238009D0E6F6F706B726B0A0E716FA9EC16F0C2
:102248006D510101206F00019D4B9E2B9DC067F0D1
:102258009EC068F06A6B200E696FB5EC2CF067C001
:102268009DF068C09EF09DC083F09EC084F0856B91
:10227800866BE4EC13F083C024F184C025F185C09B
:1022880026F11200310E4719010ED8A4000E0101E3
:10229800086F310E02014919010ED8A4000E010180
:1022A800096F310E02014B19010ED8A4000E01016D
:1022B8000A6F4D0E00016D6F020E6E6F6F6B706BC3
:1022C800726B0A0E716FA9EC16F06DC00BF16EC03F
:1022D8000CF16FC00DF170C00EF11200470E000135
:1022E8006D6F020E6E6FA30E6F6F706B726B0A0EBE
:1022F800716FA9EC16F06DC033F16EC034F16FC088
:1023080035F170C036F1A3C06DF0A4C06EF0A30E15
:102318006F6F706B726B0A0E716FA9EC16F06DC05F
:1023280037F16EC038F16FC039F170C03AF1A3C00F
:102338006DF0A4C06EF0A30E6F6F706B726B0A0E17
:10234800716FA9EC16F06DC03BF16EC03CF1A3C0F3
:102358006DF0A4C06EF0A30E6F6F706B726B0A0EF7
:10236800716FA9EC16F0A3C06DF0A4C06EF06F6B8E
:10237800706B726B0A0E716FA9EC16F06DC03DF1AF
:102388006EC03EF16FC03FF170C040F11200020113
:102398004151410AD8B41200150A01E173D7010A64
:1023A800D8A412009BD79A51430A01E119D6060A0C
:1023B80001E131D7020A01E177D60C0AD8B412003C
:1023C8001B0A01E1E5D6030AE2E0040A12008D6F58
:1023D80000018DAFFBD08D6D8D51800A120F01E287
:1023E8008ED0706B0A0E6F6F6A6B640E696F8D51B9
:1023F800676F686B67BF680752EC29F067C06DF0BC
:1024080068C06EF06CEC28F0030E6D03F3CF86F015
:10241800F4CF87F06E03F35087271B0E8627000E34
:102428008723280E8625F66E7C0E8721F76E090015
:10243800F5CF78F00900F5CF79F00A00F5CF7AF0FA
:10244800706B640E6F6F8D516D6F6E6B6DBF6E0725
:102458006CEC28F0030E6D03F3CF88F0F4CF89F00D
:102468006E03F3508927360E8827000E8923280E1D
:102478008825F66E7C0E8921F76E0900F5CF75F078
:102488000900F5CF76F00A00F5CF77F086EC20F05A
:1024980075C08AF076C08BF077C08CF08AC075F072
:1024A8008BC076F08CC077F06A6B0A0E696F8D511D
:1024B800676F686B67BF680752EC29F0030E670304
:1024C800F3CF86F0F4CF87F06803F3508727280E00
:1024D8008625F66E7C0E8721F76E0900F5CF78F019
:1024E8000900F5CF79F00A00F5CF7AF086EC20F0F4
:1024F80075C083F076C084F077C085F012008D51E6
:10250800800A750F51E3706B0A0E6F6F8D516D6FF6
:102518006E6B6DBF6E076CEC28F0030E6D03F3CF86
:1025280086F0F4CF87F06E03F35087271B0E8627BB
:10253800000E8723280E8625F66E7C0E8721F76EFF
:102548000900F5CF75F00900F5CF76F00A00F5CF50
:1025580077F06A6B0A0E696F8D51676F686B67BF9A
:10256800680752EC29F0030E6703F3CF88F0F4CF25
:1025780089F06803F3508927280E8825F66E7C0EAB
:102588008921F76E0900F5CF78F00900F5CF79F0C9
:102598000A00F5CF7AF086EC20F075C083F076C09B
:1025A80084F077C085F012008D51030D280EF324B6
:1025B800F66E7C0EF420F76E0900F5CF83F0090063
:1025C800F5CF84F00A00F5CF85F012008D51800A0E
:1025D800120F01E28ED0706B0A0E6F6F6A6B640E79
:1025E800696F8D51676F686B67BF680752EC29F098
:1025F80067C06DF068C06EF06CEC28F0030E6D03D8
:10260800F3CF86F0F4CF87F06E03F35087271B0EC5
:102618008627000E8723010E8625F66E7C0E8721FD
:10262800F76E0900F5CF78F00900F5CF79F00A00C8
:10263800F5CF7AF0706B640E6F6F8D516D6F6E6BA6
:102648006DBF6E076CEC28F0030E6D03F3CF88F0B6
:10265800F4CF89F06E03F3508927360E8827000ED1
:102668008923010E8825F66E7C0E8921F76E0900F4
:10267800F5CF75F00900F5CF76F00A00F5CF77F0C1
:1026880086EC20F075C08AF076C08BF077C08CF0AD
:102698008AC075F08BC076F08CC077F06A6B0A0E32
:1026A800696F8D51676F686B67BF680752EC29F0D7
:1026B800030E6703F3CF86F0F4CF87F06803F35077
:1026C8008727010E8625F66E7C0E8721F76E090096
:1026D800F5CF78F00900F5CF79F00A00F5CF7AF058
:1026E80086EC20F075C083F076C084F077C085F062
:1026F80012008D51800A750F51E3706B0A0E6F6FCF
:102708008D516D6F6E6B6DBF6E076CEC28F0030E0C
:102718006D03F3CF86F0F4CF87F06E03F35087276D
:102728001B0E8627000E8723010E8625F66E7C0E6B
:102738008721F76E0900F5CF75F00900F5CF76F01F
:102748000A00F5CF77F06A6B0A0E696F8D51676FD3
:10275800686B67BF680752EC29F0030E6703F3CF75
:1027680088F0F4CF89F06803F3508927010E882593
:10277800F66E7C0E8921F76E0900F5CF78F0090016
:10278800F5CF79F00A00F5CF7AF086EC20F075C025
:1027980083F076C084F077C085F012008D51030D68
:1027A800010EF324F66E7C0EF420F76E0900F5CFC7
:1027B80083F00900F5CF84F00A00F5CF85F0120008
:1027C800855186110BE085C0D9FF86C0DAFF83C02A
:1027D800DEFF84C0DDFF02D0834B842B83C0D9FF8A
:1027E80084C0DAFFDF50886F885198EC2DF0F4E24E
:1027F800896B2D0E881905E1010E896F834B842B97
:1028080003D02B0E8819FAE0886B8B6B8C6B8D6B61
:102818008E6B8A6B89B909D083C0D9FF84C0DAFF6F
:102828002E0EDE1802E1898934D083C0D9FF84C016
:10283800DAFFDF50ECEC2DF02FE38983080E8819BE
:1028480026E089B98A07882B8BC067F08CC068F0AE
:102858008DC069F08EC06AF00A0E6B6F6C6B6D6B81
:102868006E6B2EEC27F067C08BF068C08CF069C0E7
:102878008DF06AC08EF083C0D9FF84C0DAFFDF50C4
:10288800D00F8B27000E8C238D238E2302D089A98D
:102898008A2B834B842BBED7886B83C0D9FF84C017
:1028A800DAFF650EDE1807E083C0D9FF84C0DAFFBF
:1028B800450EDE1858E1834B842B83C0D9FF84C0B2
:1028C800DAFF2D0EDE1802E1898707D083C0D9FF11
:1028D80084C0DAFF2B0EDE1802E1834B842B83C001
:1028E800D9FF84C0DAFF300EDE18F7E083C0D9FFC5
:1028F80084C0DAFFDF50ECEC2DF033E383C0D9FF5E
:1029080084C0DAFFDF50D00F886F834B842B83C0DD
:10291800D9FF84C0DAFFDF50ECEC2DF022E383C04E
:10292800D9FF84C0DAFFDF50876F88510A0DF35052
:102938008725D00F886F834B842B83C0D9FF84C031
:10294800DAFFDF50ECEC2DF00CE383C0D9FF84C034
:10295800DAFFDF50876F88510A0DF3508725D00FB3
:10296800886F89B7886D88518A27855186110AE052
:1029780089A308D085C0D9FF86C0DAFF83C0DEFFEF
:1029880084C0DDFF8BC06FF08CC070F08DC071F01B
:102998008EC072F086EC29F06FC08BF070C08CF09E
:1029A80071C08DF08B518C118D1104E1836B846B98
:1029B800856B12008AAF4CD08A6D16D08BC06FF031
:1029C8008CC070F08DC071F0030E726F150E736FAE
:1029D800500E746F7CEC22F06FC08BF070C08CF0DE
:1029E80071C08DF0F60E8A278A51800A760F15E39A
:1029F800E5D78BC06FF08CC070F08DC071F0726B32
:102A0800200E736F410E746F7CEC22F06FC08BF058
:102A180070C08CF071C08DF08A078A51EAE18BC0D2
:102A280067F08CC068F08DC069F06A6B800E6B6FC0
:102A38006C6B4EEC2AF05AE289A105D0836B800EAC
:102A4800846F856F800C836B800E846F856B000CA0
:102A58008A51800A7F0F17E249D08BC075F08CC06D
:102A680076F08DC077F0030E786F150E796F500EE3
:102A78007A6F86EC20F075C08BF076C08CF077C04A
:102A88008DF0F60E8A270A0E8A61E7D714D08BC01C
:102A980075F08CC076F08DC077F0786B200E796F6A
:102AA800410E7A6F86EC20F075C08BF076C08CF002
:102AB80077C08DF08A078A51EAE167697F0E686FEF
:102AC800696F8BC06AF08CC06BF08DC06CF04EECF7
:102AD8002AF00CE289A105D0836B800E846F856F84
:102AE800800C836B800E846F856B000C89A10ED0DF
:102AF8008BC067F08CC068F08DC069F034EC2EF0A4
:102B080067C08BF068C08CF069C08DF08BC083F013
:102B18008CC084F08DC085F01200040132050DE1EF
:102B280030511F0B0AE10001F88F030E040131191F
:102B380003E1010E2A6E01D02A6A3251D8A412008C
:102B480030511F0B020AD8A4120034510F0BD8B40D
:102B5800120034510F0B496E030E4960030C200E0E
:102B68002D18D8A412000001F88F040134BF18D022
:102B780034510F0B020D430EF324D96E010EF420CD
:102B8800DA6EDECF4EF0DDCF4FF034510F0B496EC9
:102B98004A6A5B0E4924D96E010E4A20DA6E12D0B9
:102BA80034510F0B020DF350090FD96EDA6ADECFDC
:102BB8004EF0DDCF4FF034510F0B496E4950FB0FEB
:102BC800D96EDA6ADF504D6E4DB003D0FB0E4E164B
:102BD80002D0040E4E124F5034BF0AD034510F0B9E
:102BE800020D430EF324D96E010EF420DA6E07D0DD
:102BF80034510F0B020DF350090FD96EDA6A4EC02B
:102C0800DEFF4FC0DDFF030E311929E14EC0D9FFA9
:102C18004FC0DAFFDFAE17D034BF0CD034510F0BE2
:102C2800496E4A6A5B0E4924D96E010E4A20DA6E53
:102C3800010108D034510F0B496E4950FB0FD96E72
:102C4800DA6A0001DF824EC0D9FF4FC0DAFF000EFA
:102C5800DB844EC0D9FF4FC0DAFFDB8E000C040EB8
:102C68004E1A4F504EC0D9FF4FC0DAFFDFAE19D011
:102C78004EC0D9FF4FC0DAFF7F0EDF164EC0D9FF16
:102C88004FC0DAFF000EDB8C426A050E416E4EC063
:102C980043F04FC044F0466A020E456E9BEC2BF0A1
:102CA80006D04EC0D9FF4FC0DAFF000EDB8C040EF1
:102CB8004E1A4F504DB206D04EC0D9FF4FC0DAFF62
:102CC800DFAE2BD0040134BF0CD034510F0B496E4A
:102CD8004A6A5B0E4924D96E010E4A20DA6E010158
:102CE80008D034510F0B496E4950FB0FD96EDA6A80
:102CF8000001DF924EC0D9FF4FC0DAFF3B0EDF164E
:102D0800426A050E416E4EC043F04FC044F0466A19
:102D1800020E456E9BEC2BF006D04EC0D9FF4FC07B
:102D2800DAFF3B0EDF16040134510F0B496E4A6A75
:102D38006A0E49244B6E0F0E4A204C6E4BC0D9FFC9
:102D48004CC0DAFFFE0EDF16FE0C6DC0D9FF6EC058
:102D5800DAFFDF50806F6D4B6E2B805198EC2DF0B1
:102D6800F4E27C6B7D6B7E6B7F6B7B6B2D0E801929
:102D78000BE1010E7B6F6DC0D9FF6EC0DAFFDF502B
:102D8800806F6D4B6E2B03D02B0E8019F4E0300E44
:102D9800801927E16DC0D9FF6EC0DAFFDF50806F60
:102DA8006D4B6E2B7151721104E0100E7119721176
:102DB80012E1780E801903E0580E80190CE1726B4D
:102DC800100E716F6DC0D9FF6EC0DAFFDF50806FD3
:102DD8006D4B6E2B06D07151721103E1726B080EA8
:102DE800716F7151721103E1726B0A0E716F80512C
:102DF80072EC2DF006E3805158EC2EF0C90F806F6D
:102E080006D08051ECEC2DF065E3300E805F8051E8
:102E1800736F746B7151735D7451800A756F725161
:102E2800800A755957E271C073F072C074F0000ED1
:102E380074BFFF0E756F766F73517C03F3CF77F015
:102E4800F4CF78F0796B7A6B7D03F3507827F450E0
:102E58007923000E7A2374517C03F3507827F450B9
:102E68007923000E7A2373517E03F3507927F450A7
:102E78007A2374517D03F3507927F4507A237551DE
:102E88007C03F3507927F4507A237F517303F3506E
:102E98007A2774517E03F3507A2775517D03F350D6
:102EA8007A2776517C03F3507A27805177257C6FF7
:102EB800000E78217D6F000E79217E6F000E7A2139
:102EC8007F6F6DC0D9FF6EC0DAFFDF50806F6D4B2A
:102ED8006E2B8DD76F5170110EE0FF0E6D25736F3D
:102EE800FF0E6E21746F6FC0D9FF70C0DAFF73C018
:102EF800DEFF74C0DDFF7B511AE07CC073F07DC03B
:102F080074F07EC075F07FC076F0731F741F751F54
:102F1800761F732B000E74237523762373C06DF010
:102F280074C06EF075C06FF076C070F0000C7CC095
:102F38006DF07DC06EF07EC06FF07FC070F0120043
:102F48007551D96EDA6ADECF7AF0DECF7BF0DECF4C
:102F58007CF0DECF7DF07AC067F07BC068F07CC083
:102F680069F07DC06AF03C0E6B6F6C6B6D6B6E6BBD
:102F780093EC24F067C065F168C066F17AC067F029
:102F88007BC068F07CC069F07DC06AF03C0E6B6F56
:102F98006C6B6D6B6E6B1EEC22F067C07AF068C0CC
:102FA8007BF069C07CF06AC07DF07AC067F07BC0B6
:102FB80068F07CC069F07DC06AF03C0E6B6F6C6B8A
:102FC8006D6B6E6B93EC24F067C067F168C068F1B5
:102FD8007AC067F07BC068F07CC069F07DC06AF099
:102FE8003C0E6B6F6C6B6D6B6E6B1EEC22F067C0EA
:102FF8007AF068C07BF069C07CF06AC07DF07AC066
:1030080067F07BC068F07CC069F07DC06AF0180E7C
:103018006B6F6C6B6D6B6E6B93EC24F067C069F132
:1030280068C06AF17AC067F07BC068F07CC069F05C
:103038007DC06AF0180E6B6F6C6B6D6B6E6B1EEC5F
:1030480022F067C06BF168C06CF1040E01016B25BA
:103058000001676F000E01016C210001686F6A6B47
:10306800070E696F52EC29F067C071F168C072F100
:103078000101706B460E6F6F0FD06FC16CF070C19D
:103088006DF0D2EC2AF06C5101016B5F00016D51BB
:1030980001016C5B6F4B702B6FC16CF070C16DF0F0
:1030A800D2EC2AF06C5101016B5D6C51800A000171
:1030B800776F6D51800A7759E0E26FC16CF070C18B
:1030C8006DF0D2EC2AF06C51020B7A6F6BC173F180
:1030D8006CC174F101016D6B6E6B0AD07B510101FB
:1030E8006B5F000E6C5B6D4B6E2B0001D8907A33D2
:1030F8004F0E01016D25F66E7C0E6E21F76E0800ED
:10310800F55000017A117B6F7B51776F786B77519F
:1031180001016B5D6C51800A0001796F7851800A5A
:103128007959DCE201016B4B6C2B650E0001756F60
:10313800010E766F12008C6F6D0E00018C6574D0D5
:103148000A0E6B6F640E676F8C514BEC2DF064ECBC
:103158002CF0030D1B0EF326000EF422280EF32488
:10316800F66E7C0EF420F76E0900F5CF78F00900B2
:10317800F5CF79F00A00F5CF7AF0640E6B6F8C51B9
:1031880064EC2CF0030D360EF326000EF422280E04
:10319800F324F66E7C0EF420F76E0900F5CF75F077
:1031A8000900F5CF76F00A00F5CF77F086EC20F02D
:1031B80075C089F076C08AF077C08BF00A0E676F09
:1031C8008C514BEC2DF0030D280EF324F66E7C0E7B
:1031D800F420F76E0900F5CF78F00900F5CF79F003
:1031E8000A00F5CF7AF089C075F08AC076F08BC0F6
:1031F80077F086EC20F075C086F076C087F077C04F
:1032080088F086C075F087C076F088C077F0786B54
:10321800796B3F0E7A6F86EC20F075C083F076C02C
:1032280084F077C085F012000A0E8C6548D0676F6D
:103238008C514BEC2DF0030D280EF324F66E7C0E0A
:10324800F420F76E0900F5CF78F00900F5CF79F092
:103258000A00F5CF7AF00A0E6B6F8C5164EC2CF0F3
:10326800030D1B0EF326000EF422280EF324F66E2F
:103278007C0EF420F76E0900F5CF75F00900F5CF44
:1032880076F00A00F5CF77F086EC20F075C089F06B
:1032980076C08AF077C08BF089C075F08AC076F066
:1032A8008BC077F0786B796B3F0E7A6F86EC20F0E5
:1032B80075C083F076C084F077C085F012008C5119
:1032C800030D280EF324F66E7C0EF420F76E090029
:1032D800F5CF75F00900F5CF76F00A00F5CF77F055
:1032E800786B796B3F0E7A6F86EC20F075C083F0AF
:1032F80076C084F077C085F012009B0E8A6F020EAC
:103308008B6F770E876FB0D075C0F6FF76C0F7FF6A
:103318000001754B762B0800F550250A01E08DD089
:1033280075C0F6FF76C0F7FF0800F5CF7FF0D00E26
:103338007F25886F896BFF0E8923754B762B885103
:10334800891137E18751D96EDA6ADECF85F0DDCF92
:1033580086F0020E87271AD085C0F6FF86C0F7FFD1
:10336800F86A8AC0D9FF8BC0DAFF070EF76403D06A
:103378000800F55005D0F6CFE1FFF7CFE2FFE750A0
:10338800DF6E0001854B862B8A4B8B2B85C0F6FFA1
:1033980086C0F7FFF86A070EF76403D00800F550F7
:1033A80005D0F6CFE1FFF7CFE2FFE75000095CE078
:1033B800D3D78751D96EDA6ADECF83F0DDCF84F0B8
:1033C800020E872736D083C067F084C068F0D89093
:1033D8008835D96E8935DA6ECC0ED926010EDA22F7
:1033E800DECF69F0DDCF6AF052EC29F067C083F0D8
:1033F80068C084F08807D8A0890783C06DF084C0AE
:103408006EF0D8908835D96E8935DA6ECC0ED9260B
:10341800010EDA22DECF6FF0DDCF70F06CEC28F011
:103428006D51300F8AC0D9FF8BC0DAFFDF6E8A4B2F
:103438008B2B8851891118E0C6D77F69806975C0C0
:1034480081F076C082F07F5181278051822381C02C
:10345800F6FF82C0F7FF8AC0D9FF8BC0DAFF0800E9
:10346800F5CFDFFF8A4B8B2B75C0F6FF76C0F7FFD1
:103478000800F55001E048D78AC0D9FF8BC0DAFFB1
:10348800DF6A000C8FC093F0946B956B8E35933781
:1034980001E394819351986F92C093F0946B956B6C
:1034A8009135933701E394819351976F985109E0CF
:1034B8009751985D0DE29851975D936F180E93653B
:1034C80007D090C08DF091C08EF092C08FF012009E
:1034D800975109E09851975D0DE29751985D936F68
:1034E800180E936507D08DC08DF08EC08EF08FC0FA
:1034F8008FF01200060E966F8FBF968F92BF968D33
:103508008E8F8F6B918F926B9751985D18E2D89040
:103518009037913792379707985197190CE096078B
:1035280096C093F0070E931706E0F1D7D8908F3323
:103538008E338D33982B975198191BE0F7D79851F4
:10354800975D17E2D8908D378E378F379807985147
:1035580097190CE0960796C093F0070E931706E0AC
:10356800F1D7D890923391339033972B975198197C
:10357800F8E196AF07D08D1F8E1F8F1F8D2B000E81
:103588008E238F2396AD07D0901F911F921F902BEB
:10359800000E91239223966B8D5190278E51912383
:1035A8008F51922392AF09D0901F911F921F902B99
:1035B800000E91239223010E966F90C067F091C080
:1035C80068F092C069F098C06AF096C06BF0E9ECB8
:1035D80026F067C08DF068C08EF069C08FF01200C9
:1035E8000001E86F98D0800E9B6E700ED36E100E9F
:1035F800D26ED2AEFED7900EB56E4DEC2EF0948200
:10360800CDEC2DF0800E01018F6F250E906F916B20
:10361800926B0001676B1B0E686FB70E696F6A6B60
:103628008FC16BF090C16CF091C16DF092C16EF0DA
:10363800A8EC28F0FF0E6725E96FFF0E6821EA6FF6
:10364800FF0E6921EB6FFF0E6A21EC6FE9C0AFFF37
:10365800EAC0B0FFEE6B010EED6FF26B0A0EF16F70
:10366800F06B050EEF6FF46B530EF36FED0E676F93
:10367800A3EC26F09390929A8A90939693909392C3
:10368800929697EC1BF03F0ECB6F7E0ECC6FCE6BF5
:10369800CD6B3F0E676F7E0E686FF7EC2CF06751AD
:1036A800CF6F3FEC0DF0620EF66E7C0EF76E0800E1
:1036B800F550E5EC24F0310ECB6F7E0ECC6FCE6B5F
:1036C800CD6B310E676F7E0E686FF7EC2CF067518B
:1036D800CF6F3FEC0DF0640EF66E7C0EF76E0800AF
:1036E800F550E5EC24F09F0ECB6F7D0ECC6FCE6BC2
:1036F800CD6B9F0E676F7D0E686FF7EC2CF06751EE
:10370800CF6F3FEC0DF0660EF66E7C0EF76E08007C
:10371800F550E5EF24F00001E85101E164D7010A12
:10372800D8A4030A12008A80899A8996AE0E676F18
:10373800010E0AEC2EF0DC0E0001676F010E0AEC98
:103748002EF00001676B010E0AEC2EF0810E0001CD
:10375800676F010E0AEC2EF05F0E0001676F010E15
:103768000AEC2EF0A00E0001676F010E0AEC2EF095
:10377800210E0001676F010E0AEC2EF0C80E000141
:10378800676F010E0AEC2EF07F0E0001676F010EC5
:103798000AEC2EF0580E0001676F010E0AEC2EF0AD
:1037A800D30E0001676F010E0AEC2EF06C0E0001BB
:1037B800676F010E0AEC2EF0D50E0001676F010E3F
:1037C8000AEC2EF0510E0001676F010E0AEC2EF084
:1037D800D90E0001676F010E0AEC2EF0220E0001CF
:1037E800676F010E0AEC2EF0DB0E0001676F010E09
:1037F8000AEC2EF0350E0001676F010E0AEC2EF070
:10380800B00E0001676F010E0AEC2EF0DA0E00010F
:10381800676F010E0AEC2EF0120E0001676F010EA1
:103828000AEC2EF0A40E0001676F010E0AEC2EF0D0
:10383800A60E0001676F010E0AEC2EF0040E0001BF
:10384800726F0C0E716F330EE82EFED7712FFCD7F6
:10385800722FFAD700D0AF0E0001676F010E0AEC85
:103868002EF0B1EC27F0898A1200800E040130197D
:10387800D8A41200C00E0001F86F79D02C0E0001F8
:10388800F56F7D0EF66FFA6B120EF96F120C32514E
:1038980040E13251020D670EF324F66E7C0EF420DF
:1038A800F76E0900F5CFF5F00A00F5CFF6F0020E35
:1038B8000001F525306E000EF621316E30C0F6FF9E
:1038C80031C0F7FFF86A070EF76403D00800F55017
:1038D80005D0F6CFE1FFF7CFE2FFE7500001F96F1F
:1038E800030EF525306E000EF621316E30C0F6FF5E
:1038F80031C0F7FFF86A070EF76403D00800F550E7
:1039080005D0F6CFE1FFF7CFE2FFE7500001FA6FED
:1039180012000001F86B1200030E326122D03251FE
:10392800020D5B0EF324F66E7C0EF420F76E090090
:10393800F5CFF5F00A00F5CFF6F0F5C0F6FFF6C0C2
:10394800F7FFF86A070EF76403D00800F55005D0B2
:10395800F6CFE1FFF7CFE2FFE7500001F96FFA6B0E
:1039680012000001F86B12000001F86B120004014C
:103978003351010A83E0030A8AE0010ACDE0F4D753
:103988002D0407E160BA05D0656A64806488020E78
:103998002D6E65B464A403D06594AAEC2DF060A2E2
:1039A80002D0A494120065B064A006D0BCEC1EF04E
:1039B800A384040E2D6E659065B864A802D0FBEC54
:1039C8002DF065AC16D064AC0AD0426A730E416E15
:1039D800436A446A466A010E456E9BEC2BF0659C6F
:1039E80026EC2EF0265001E02606265002E136ECA1
:1039F80023F065BA64AA02D045EC2CF065B264A243
:103A08000BD07F0E426E4168436A446A466A010ED3
:103A1800456E9BEC2BF0676A040E2D6002D0A494CF
:103A2800040C64A62ED0516A65A62BD061CF2EF067
:103A38002E30E832E8320F0B286E65962EB408D087
:103A48005B0E2824D96EDA6A010EDA22010105D04C
:103A58002850FB0FD96EDA6A0001DF70285003E1A5
:103A6800F0EC27F00AD0426A720E416E2E0E436EB9
:103A7800446A466A456A9BEC2BF0512A030E51644E
:103A8800D3D7A4941200A39401015E515F1108E0FA
:103A98005EC1D9FF5FC1DAFFDFAE02D0A384120096
:103AA800030E1E1801E11E6A1E5002E1A3841200D3
:103AB800020E1E1811E1010E0001676F000E686FFB
:103AC800696F6A6F020E48EC1EF067C05EF168C04D
:103AD8005FF1030E1E6E57D01E0455E1400E1D64A3
:103AE80003D00001716F02D01DC071F00001715147
:103AF8001D5E000E0101556F050E566F71C070F006
:103B08001C5012E026D058C1D9FF59C1DAFF55C15F
:103B1800E1FF56C1E2FFDFCFE7FF0101554B562B0E
:103B2800584B592B000170070001705115E0EBD775
:103B380058C1D9FF59C1DAFF55C1E1FF56C1E2FFAB
:103B4800DFCFE7FF0101554B562B584B592B00018E
:103B5800700700017051ECE11D5006E1400E71192B
:103B6800020ED8A4030E1E6E010E676F000E686F5A
:103B7800050E696F71C06AF0020E48EC1EF067C04E
:103B88005EF168C05FF1A384120020EE01F01350CB
:103B9800D9261450DA22DF50316E3150055C000E00
:103BA800065802E205C031F03150055E000E065A93
:103BB800306A0FD0380E3024D96EDA6A040EDA2251
:103BC80001C0E1FF02C0E2FFDFCFE7FF014A022A9E
:103BD800302A3150305CEEE30550061032E020EE1A
:103BE80001F01150D9261250DA22080EDF6E20EEAD
:103BF80002F01150D9261250DA22380EDE6E040E69
:103C0800DD6E13C0D9FF14C0DAFFDFBC0DD011C0C0
:103C1800D9FF12C0DAFF480EDF6E11C0D9FF12C0FB
:103C2800DAFF000EDB8E000C11C0D9FF12C0DAFFDC
:103C3800080EDF6E11C0D9FF12C0DAFF000EDB8E4E
:103C4800000C20EE01F01150D9261250DA22080E8D
:103C5800DF6E20EE02F01150D9261250DA22300E13
:103C6800DE6E040EDD6E11C0D9FF12C0DAFFDF6E02
:103C780011C0D9FF12C0DAFF000EDB8E049E25505A
:103C8800D8B436EC23F012006D6F0001675107E0DD
:103C98006D51020DF350090FD96EDA6A08D06D51D3
:103CA800020D430EF324D96E010EF420DA6EDECF36
:103CB8006EF0DDCF6FF06E516F1103E1676B686BCB
:103CC800120020EE02F06E51D9266F51DA2268C038
:103CD800DEFF69C0DDFF20EE01F06E51D9266F517D
:103CE800DA226AC0DFFF6EC0D9FF6FC0DAFF400E6C
:103CF800DF166EC0D9FF6FC0DAFF000EDB866EC01C
:103D0800D9FF6FC0DAFFDB8E675113E06D51020DEA
:103D1800F350090FD96EDA6ADECF6BF0DDCF6CF0A5
:103D2800040E6B1B6D51020DF350090FD96EDA6A40
:103D380016D06D51020D430EF324D96E010EF420F6
:103D4800DA6EDECF6BF0DDCF6CF0040E6B1B6D51BD
:103D5800020D430EF324D96E010EF420DA6E6BC007
:103D6800DEFF6CC0DDFF6EC067F06FC068F0120048
:103D7800A394676A656A6A6A6B0E306E0F0E316EBD
:103D8800336A326A356A020E346E36EC2DF0160E3E
:103D9800626E9F0E666E7B0E646E386A3850040D34
:103DA800000EF324D96E040EF420DA6EDE6ADE6AA1
:103DB800DE6ADD6A382A0B0E3864F0D7608C636AD5
:103DC8006098609C65960001F86B046A056A066A4B
:103DD80065B6F8D7010E246E236E226A216A296A15
:103DE800386A3850020DF350090FD96EDA6ADE6A64
:103DF800DD6A3850020D430EF324D96E010EF4200B
:103E0800DA6EDE6ADD6A3850FB0FD96EDA6ADF6A6D
:103E18005B0E3824D96EDA6A010EDA22DF6A382A94
:103E2800020E3864DED7080E096E040E0A6E160EEE
:103E38006A6E040E0401036F300E026F080E016FE4
:103E4800040E006F008F2F6A0101516B526B536B88
:103E5800546B206A2D6A1200A394676A656A6A6ABD
:103E68006B0E676F0F0E686F6A6B696B6C6B020E77
:103E78006B6F21EC2DF0160E626E9F0E666E7B0E38
:103E8800646E6F6B6F51040D000EF324D96E040E2F
:103E9800F420DA6EDE6ADE6ADE6ADD6A6F2B0B0EEC
:103EA8006F65F0D7608C636A6098609C6596F86B64
:103EB800046A056A066A65B6F9D7010E246E236E90
:103EC800226A216A296A6F6B6F51020DF350090F3C
:103ED800D96EDA6ADE6ADD6A6F51020D430EF32489
:103EE800D96E010EF420DA6EDE6ADD6A6F51FB0FBF
:103EF800D96EDA6ADF6A5B0E6F25D96EDA6A010E4F
:103F0800DA22DF6A6F2B020E6F65DED7080E096EA4
:103F1800040E0A6E160E6A6E040E0401036F300E4C
:103F2800026F080E016F040E006F008F2F6A0101E7
:103F3800516B526B536B546B206A2D6A1200366EAC
:103F4800305007E03650020DF350090FD96EDA6A87
:103F580008D03650020D430EF324D96E010EF4201A
:103F6800DA6EDECF37F0DDCF38F03750381003E1A6
:103F7800306A316A120020EE02F03750D9263850E4
:103F8800DA2231C0DEFF32C0DDFF20EE01F037500B
:103F9800D9263850DA2233C0DFFF37C0D9FF38C0FE
:103FA800DAFF400EDF1637C0D9FF38C0DAFF000E3F
:103FB800DB8637C0D9FF38C0DAFFDB8E305013E01C
:103FC8003650020DF350090FD96EDA6ADECF34F09D
:103FD800DDCF35F0040E341A3650020DF350090FB8
:103FE800D96EDA6A16D03650020D430EF324D96E14
:103FF800010EF420DA6EDECF34F0DDCF35F0040E9A
:10400800341A3650020D430EF324D96E010EF420F3
:10401800DA6E34C0DEFF35C0DDFF37C030F038C09F
:1040280031F0120060980001F8BF36D004AE09D014
:10403800020E2B6E215002E17FEC25F0236A246AE0
:10404800120020EE01F01150D9261250DA22080E83
:10405800DF6E20EE02F01150D9261250DA22300E0F
:10406800DE6E040EDD6E11C0D9FF12C0DAFF0C0E31
:10407800DF6E11C0D9FF12C0DAFF000EDB8E09C057
:10408800D9FF0AC0DAFF040EDF6E09C0D9FF0AC0E3
:10409800DAFF000EDB8E000C040130AF0DD0010EEC
:1040A8002B6E225002E17FEC25F0236A246A25500A
:1040B800D8A4120036EF23F0020E2B6E20EE01F08A
:1040C8001150D9261250DA22080EDF6E20EE02F0C7
:1040D8001150D9261250DA22300EDE6E040EDD6E33
:1040E80011C0D9FF12C0DAFFDF6E11C0D9FF12C0AC
:1040F800DAFF000EDB8E236A246A255002E136EFD0
:1041080023F0120077C07BF07C6B7D6B76357B37B4
:1041180001E37C817B517E6F7E5104E1756B766B88
:10412800776B12007AC07BF07C6B7D6B79357B37BF
:1041380001E37C817B517F6F7F5104E1756B766B66
:10414800776B12007F517B0F7E2777C07FF07A5103
:104158007F1B800E7F17768F798F7A6B776B7551FF
:104168007803F4CFF3FFF46AF3CF80F0F4CF81F053
:10417800826B75517903F3508027F4508123000E28
:10418800822376517803F3508027F4508123000E60
:10419800822376517903F3508127F450822382AF2A
:1041A80005D0D8908233813380337E2BD8908233E8
:1041B8008133803380C067F081C068F082C069F0C5
:1041C8007EC06AF07FC06BF0E9EC26F067C075F03E
:1041D80068C076F069C077F0120069C06DF06E6B48
:1041E8006F6B68356D3701E36E816D51756F755171
:1041F80005E1676B686B696B6A6B12006CC06DF0E8
:104208006E6B6F6B6B356D3701E36E816D51746F3B
:104218007451EFE0688F696B6B8F6C6B706B716BAF
:10422800726B736B7F0E755F7451980F755F180E04
:10423800746FD89070377137723773376A51675D0A
:104248006B5168596C51695907E36A51675F6B5143
:10425800685B6C51695B7081D890673768376937DC
:10426800742FE7D775AF0CD07551800A970FC1E34B
:10427800D8907333723371337033753FF9D70CD0DC
:10428800170E756507D0B5D7D89070377137723764
:10429800733775077551F8E170C067F071C068F041
:1042A80072C069F073C06AF01200080E306E000127
:1042B800FA510DE1080EF95D0AE2F9C030F02C5010
:1042C80002E1010E03D02C0402E1020E2C6E3050E4
:1042D800F95F000EFA5B20EE01F00950D9260A506A
:1042E800DA2230C0DFFF380E0101606F040E616F03
:1042F8000001F8B13CD01CD0F5C0F6FFF6C0F7FFBE
:10430800F86A60C1D9FF61C1DAFF070EF76403D00C
:104318000800F55005D0F6CFE1FFF7CFE2FFE750F0
:10432800DF6E0001F54BF62B0101604B612B300667
:104338003050E2E11200F5C0F6FFF6C0F7FFF86A68
:1043480060C1D9FF61C1DAFF070EF76403D0080026
:10435800F55005D0F6CFE1FFF7CFE2FFE750DF6E6B
:104368000001F54BF62B0101604B612B30063050F4
:10437800E2E11200000169356A35726F725105E198
:10438800676B686B696B6A6B12006C356D35716FA2
:104398007151F6E0698F6A6B6C8F6D6B6D6B6E6B2C
:1043A8006F6B706B7F0E725F7151A00F725F200E82
:1043B800716FD8906D376E376F3770376A51675D98
:1043C8006B5168596C5169596D516A5909E36A51C1
:1043D800675F6B51685B6C51695B6D516A5B6D819E
:1043E800D8906737683769376A37712FE2D772AF65
:1043F8000CD07251800A9F0FC3E3D89070336F338B
:104408006E336D33723FF9D70CD01F0E726507D02B
:10441800B7D7D8906D376E376F37703772077251CC
:10442800F8E16DC067F06EC068F06FC069F070C0E9
:104438006AF01200706B6EAF0AD06E1F6D1F6C1F92
:104448006B6D000E6C236D236E23010E706F6AAFC7
:104458000AD06A1F691F681F676D000E68236923E9
:104468006A23010E701B716B726B736B746B6B51EB
:104478006C116D116E1129E0010E6F6F06D0D89086
:104488006B376C376D376E376F2B6EAFF8D7D890A8
:1044980071377237733774376B51675D6C51685970
:1044A8006D5169596E516A5909E36B51675F6C51D7
:1044B800685B6D51695B6E516A5B7181D8906E3330
:1044C8006D336C336B336F2FE2D7705108E0741F74
:1044D800731F721F716D000E72237323742371C0D2
:1044E80067F072C068F073C069F074C06AF01200B7
:1044F80071C075F0766B776B7035753701E376812F
:1045080075517C6F7C5104E16F6B706B716B12009D
:1045180074C075F0766B776B7335753701E3768108
:1045280075517D6F7D5104E16F6B706B716B12007B
:10453800796B7A6B7B6B7D51890F7C5F71C07DF0E5
:1045480074517D1B800E7D17708F716B738F746B28
:10455800180E786FD89079377A377B3772516F5D3C
:10456800735170597451715907E372516F5F7351E8
:10457800705B7451715B7981D8906F377037713780
:10458800782FE8D779C067F07AC068F07BC069F007
:104598007CC06AF07DC06BF0E9EC26F067C06FF074
:1045A80068C070F069C071F0120090C092F0936B0F
:1045B800946B8F35923701E3938192519C6F9C5194
:1045C80005E18E6B8F6B906B916B1200170E926FDB
:1045D8008EC093F08FC094F090C095F09229966F9A
:1045E80004D0D890953394339333962FFAD700019B
:1045F8009351976F8F8F906B8E51986F8F51996FE2
:1046080090519A6F9B6B8E0E9C5F9CAF0CD09C5107
:10461800800A8F0FD6E3D8909B339A339933983317
:104628009C3FF9D70CD0170E9C6507D0CAD7D890F5
:10463800983799379A379B379C079C51F8E19751DF
:1046480008E09B1F9A1F991F986D000E99239A23C3
:104658009B2398C08EF099C08FF09AC090F09BC0B1
:1046680091F012002450D8A41200010E246E235099
:10467800D8A41200010E236E020E2B1814E120EEAE
:1046880001F00950D9260A50DA22DF6A09C0D9FF99
:104698000AC0DAFF480EDF6E09C0D9FF0AC0DAFF88
:1046A800000EDB8E000C2B04D8A41200276A20EE23
:1046B80001F01350D9261450DA22080EDF6E20EECE
:1046C80002F01350D9261450DA22300EDE6E040E92
:1046D800DD6E13C0D9FF14C0DAFFDF6E13C0D9FF37
:1046E80014C0DAFF000EDB8E010E276E20EE01F0FB
:1046F8001150D9261250DA22080EDF6E20EE02F091
:104708001150D9261250DA22300EDE6E040EDD6EFC
:1047180011C0D9FF12C0DAFF800EDF6E800C0001D5
:10472800F88F6B0E306E0F0E316E336A326A356A4F
:10473800020E346E36EC2DF0306A040E316E336A98
:10474800326A356A300E346E36EC2DF0608C496A68
:104758004950FB0FD96EDA6ADF6A5B0E4924D96EBD
:10476800DA6A010EDA22DF6A492A020E4964F0D7B2
:10477800960E306E010E316E336A326A356A020E59
:10478800346E36EC2DF0609C080E096E040E0A6E2D
:10479800000E136E040E146E13C011F014C012F044
:1047A80032C42FF02F5003E1100E2D6E100C426A08
:1047B800010E416E2F0E436E446A466A010E456E25
:1047C8009BEC2BF0200E2D6E200C04013039E832C2
:1047D800030B30E012000001F88F080E2D6E080C54
:1047E8002F0E0001F56FF66BF881010EF96FF88F47
:1047F800010C960E34250001F56FF66B010EF623B9
:10480800F881010EF96FF88F010C0001F88F960EF0
:1048180004013425D96EDA6A010EDA2232C4DFFFC8
:104828001200426A020E416E436A446A466A456A49
:104838009BEF2BF0315102E1C9EF25F0010A02E1AB
:1048480091EF15F0020A02E191EF15F0060AC3E0B4
:10485800030A02E139EF1CF0010AE3E00F0AC0E0A5
:10486800010A02E193EF23F0030AC3E0010ACDE055
:10487800070A120009C0D9FF0AC0DAFF000EDFBC20
:10488800010E316E040E091A0A50080E2D1809E19E
:10489800040132517F0B636E6350100ED8B4040EBE
:1048A8002D6E2B0438E120EE02F00950D9260A506B
:1048B800DA22380EDE6E040EDD6E59EC21F0020E9F
:1048C8002C180DE109C0D9FF0AC0DAFF040EDF6E0B
:1048D80009C0D9FF0AC0DAFF000EDB8E000C315088
:1048E8000DE109C0D9FF0AC0DAFF480EDF6E09C022
:1048F800D9FF0AC0DAFF000EDB8E000C09C0D9FF11
:104908000AC0DAFF080EDF6E09C0D9FF0AC0DAFF55
:10491800000EDB8E000C04BE049E2B6A1200706B26
:104928006AAF0AD06A1F691F681F676D000E682387
:1049380069236A23010E706F6EAF08D06E1F6D1F5A
:104948006C1F6B6D000E6C236D236E236B516C1105
:104958006D116E1123E0010E6F6F06D0D8906B3782
:104968006C376D376E376F2B6EAFF8D76B51675D4D
:104978006C5168596D5169596E516A5908E36B5108
:10498800675F6C51685B6D51695B6E516A5BD8906B
:104998006E336D336C336B336F2FE8D7705108E08B
:1049A8006A1F691F681F676D000E682369236A23E1
:1049B80067C067F068C068F069C069F06AC06AF0EB
:1049C80012006E6F000E00016C6F060E6D6F899AF3
:1049D8008996B00E676F010E0AEC2EF00001706B1D
:1049E80089966E5170250F0B676F010E0AEC2EF039
:1049F800000170516EC069F06A6B6927000E6A2366
:104A0800040E6B6F6A356A3369336B2FFBD76951B4
:104A18001009676F010E0AEC2EF0898600016F6B92
:104A28006CC0D9FF6DC0DAFFDF50696F6A6B010E89
:104A38006925F66E7B0E6A21F76E0800F5CF67F0E0
:104A4800010E0AEC2EF000016C4B6D2B6F2B0F0E34
:104A58006F65E6D7702B0D0E7065C2D7898A0D0C6D
:104A6800C40EF66E590EF76E000EF86E02EEB5F033
:104A780010EE2AF00900F5CFEEFFE550E150FAE11B
:104A8800800EF66E570EF76E000EF86E01EE98F077
:104A980010EE46F00900F5CFEEFFE550E150FAE1DF
:104AA80006EE00F0E00EEE6AE806FDE103EE00F027
:104AB800800EEE6AE806FDE102EE00F0B50EEE6A41
:104AC800E806FDE101EE00F0980EEE6AE806FDE169
:104AD80000EEF5F00A0EEE6AE806FDE100EE01F0E0
:104AE8002F0EEE6AE806FDE15F905F92000EF86E09
:104AF80000015FEF2DF0226A216A020E2B181FE1D8
:104B080020EE01F01150D9261250DA22080EDF6E7D
:104B180020EE02F01150D9261250DA22380EDE6E3D
:104B2800040EDD6E11C0D9FF12C0DAFF480EDF6E29
:104B380011C0D9FF12C0DAFF000EDB8E000C000195
:104B4800F9510401365D0001FA510401375904E2B4
:104B580036C4F9F037C4FAF059EC21F020EE02F02F
:104B68000950D9260A50DA22380EDE6E040EDD6EA0
:104B780009C0D9FF0AC0DAFF480EDF6E09C0D9FFA5
:104B88000AC0DAFF000EDB8E000C0401386B396BAB
:104B980033D00001F88F2A0436E10401388333D07A
:104BA8000001F88F30D00001F88F040134BF0AD01B
:104BB80034510F0B020D430EF324D96E010EF4206D
:104BC800DA6E07D034510F0B020DF350090FD96E6E
:104BD800DA6ADECF30F0DDCF31F030C0D9FF31C036
:104BE800DAFFDFAE10D030C0D9FF31C0DAFFDFA462
:104BF8000AD0010E386F07D030511F0BCAE0010AE6
:104C0800CFE0030AD0E00001F8AF1200380EF56FCC
:104C1800040EF66FF881020EF96F020C0401305190
:104C28001F0BE80601E012003039E832030BE806F2
:104C380001E01200345130E034052EE01200870EF6
:104C48000001F56F010EF66FFA6B080EF96FF88127
:104C5800F88F080C870E0001F56F010EF66FF88FBC
:104C6800120036C405F037C406F08F0E016E010E2F
:104C7800026E076A086A048E12008F0E0001F56F33
:104C8800010EF66FFA6B070EF96FC10EF86FC10CC3
:104C980032510001F88F12003151D1E0010ADAE0F7
:104CA800210ADFE0010AE9E0030AF2E01200356EAA
:104CB800366A040E376E3050316E326AD89031360B
:104CC80032363550336E346AD89033363436D8900D
:104CD800333634363150332632503422D890333676
:104CE8003436D8903336343633503626345037225B
:104CF80036C0D9FF37C0DAFFDF9E305009E13550A2
:104D0800020D430EF324D96E010EF420DA6E06D09C
:104D18003550020DF350090FD96EDA6A36C0DEFF3E
:104D280037C0DDFF36C0D9FF37C0DAFFDF9C20EE81
:104D380004F03650D9263750DA22DF8C120067513A
:104D4800D96EDA6ADE04DE10D8A41200C76A675189
:104D5800D96EDA6A050ED926DF50686F683B684756
:104D68006847C7506819BF0B6819C76EC66A67518C
:104D7800D96EDA6A040ED926DF50686FC6506819F2
:104D8800F00B6819C66E0AD0C69803D0C69804D02E
:104D9800C688C79E11D0C688C78E0ED06751D96EF7
:104DA800DA6A060ED926DF50500AEEE0010AEEE074
:104DB800030AEEE0010AEFE06751D96EDA6A020EE3
:104DC800D926DF50C86EC68A12006A5104E06751BE
:104DD8006811691109E1676B686B696B12006A2BCE
:104DE800D8906933683367336C6B6D6BFE0E691549
:104DF8006E6F6C516D116E110AE0F1D76A2B672B3B
:104E0800000E68236923D8906933683367336C6B65
:104E18006D6B69516E6F6C516D116E1106E0EED7B6
:104E28006A07D89067376837693768BF03D0020EBA
:104E38006A61F6D76AA1689FD8906A336A51691384
:104E48006B5101E0698F67C067F068C068F069C09E
:104E580069F0120067516B03F3CF6FF0F4CF70F075
:104E6800716B726B67516C03F3507027F4507123A8
:104E7800000E722368516B03F3507027F4507123AE
:104E8800000E722367516D03F3507127F45072239B
:104E980068516C03F3507127F450722369516B0306
:104EA800F3507127F45072236E516703F350722741
:104EB80068516D03F350722769516C03F3507227E0
:104EC8006A516B03F35072276FC067F070C068F0C7
:104ED80071C069F072C06AF012001F6A0F5010109A
:104EE80006E00FC0D9FF10C0DAFFDFBE34D020EED5
:104EF80001F00F50D9261050DA227251DE5C08E218
:104F080020EE01F00F50D9261050DA22DF50726FD0
:104F18001F6A0FD0400E1F24D96EDA6A050EDA22F6
:104F28001F507025E16E000E7121E26EDFCFE7FFA2
:104F38001F2A72511F5CEEE3000E676F400E686F08
:104F4800050E696F400E6A6F020E48EC1EF067C0CE
:104F58000FF068C010F01F501200899A8996B00EA1
:104F68000001676F010E0AEC2EF000016C6B6F6B8D
:104F7800706B89966F510F0B676F010E0AEC2EF05C
:104F88006FC069F070C06AF0040E00016B6FD890B2
:104F98006A3369336B2FFBD769511009676F010EAC
:104FA8000AEC2EF0898600016D6B6E6B6CC067F0A1
:104FB800010E0AEC2EF000016D4B6E2B6E5103E1D1
:104FC800100E6D5DF3E36F4B702B705103E1800E93
:104FD8006F5DCFE3898A12002D0E266E2EC050F029
:104FE800FD0E501631E1D8902E303F0B040D000E07
:104FF800F324136E040EF420146E13C011F014C0C1
:1050080012F0040E111A125013C0D9FF14C0DAFF9F
:10501800DF30E8320F0B0D0A02E027EF2BF0300EDD
:10502800306E040E316E20EE02F01350D926145063
:10503800DA22DECF32F0DDCF33F0356A080E346E77
:1050480005EC2CF0B9EF29F02E50FD0B040AD8B46A
:105058003EEC24F01200200E2D6001D0200C60B22E
:10506800120017500FE1000E0001706F030E716FF0
:10507800400E726F71EC27F0196E195003E0010EA3
:10508800176E186A175010E0ACA20ED0000E182444
:10509800D96EDA6A030EDA22DF5075EC2EF0182A80
:1050A8001950181801E1176A1E5002E047EF1DF069
:1050B8001A5002E147EF1DF0400E0001676F030E22
:1050C800686F1AC069F018EC2EF01A6A47EF1DF0E5
:1050D800726B70AF06D06F6D701FD8B0702B010E59
:1050E800726F6EAF06D06D6D6E1FD8B06E2B010E4D
:1050F800721B736B746B6F5170111BE0010E716F33
:1051080004D0D8906F377037712B70AFFAD7D8901A
:10511800733774376F516D5D70516E5905E36F5178
:105128006D5F70516E5B7381D89070336F33712FE0
:10513800EED7725104E0736D741FD8B0742B73C02E
:105148006DF074C06EF012006F6B706B716B726BE8
:105158006B516C116D116E1129E0010E736F06D041
:10516800D8906B376C376D376E37732B6EAFF8D7B7
:10517800D8906F377037713772376B51675D6C51E4
:1051880068596D5169596E516A5909E36B51675FE6
:105198006C51685B6D51695B6E516A5B6F81D89029
:1051A8006E336D336C336B33732FE2D76FC067F098
:1051B80070C068F071C069F072C06AF01200386A95
:1051C800396A3A6A3B6A345035103610371029E08C
:1051D800010E3C6E06D0D890343635363636373622
:1051E8003C2A37AEF8D7D890383639363A363B3677
:1051F8003450305C35503158365032583750335867
:1052080009E33450305E3550315A3650325A3750EF
:10521800335A3880D89037323632353234323C2ED1
:10522800E2D738C030F039C031F03AC032F03BC074
:1052380033F0120029D06BC0D9FF6CC0DAFFDF5001
:105248000DE06BC0D9FF6CC0DAFFDF50716F6DC025
:10525800F6FF6EC0F7FF0800F51812E06BC0D9FF23
:105268006CC0DAFFDF50716F6DC0F6FF6EC0F7FFDC
:105278000800F550715D6B6F6C6BD8A06C0712005D
:105288006B4B6C2B6D4B6E2B6F07D8A070076F297B
:10529800D2E17029D0E16B6B6C6B12006C6B68AF5C
:1052A80006D0676D681FD8B0682B010E6C6F6AAFA7
:1052B80004D0696D6A1FD8B06A2B69516A1117E06A
:1052C800010E6B6F04D0D89069376A376B2B6AAFC1
:1052D800FAD76951675D6A51685904E36951675F94
:1052E8006A51685BD8906A3369336B2FF2D76C5177
:1052F80004E0676D681FD8B0682B67C067F068C0A6
:1053080068F01200786B8E0E776F72AF11D0721F33
:10531800711F701F6F6D000E702371237223010EB1
:10532800786F06D0D8907233713370336F33772B20
:10533800736B746B756B7251766F73517411751151
:105348007611F0E16FC067F070C068F071C069F065
:1053580077C06AF078C06BF0E9EC26F067C06FF0B0
:1053680068C070F069C071F012002C6A256A226A60
:10537800216A276A2B6A09C0D9FF0AC0DAFF7F0EA3
:10538800DF16040E091A0A5009C0D9FF0AC0DAFF4D
:105398007F0EDF16040E091A0A5011C0D9FF12C079
:1053A800DAFF7F0EDF160001F86BF96BFA6B046AFF
:1053B800056A066AE9EC23F0426A030E416E436A05
:1053C800446A466A456A9BEC2BF016EF20F0FDEC28
:1053D8002AF0BCEC2DF0306A1B0E316EB70E326E1F
:1053E800336A8FC134F090C135F091C136F092C163
:1053F80037F0E3EC28F0FF0E30243D6EFF0E31202D
:105408003E6EFF0E32203F6EFF0E3320406E3DC0D1
:10541800AFFF3EC0B0FF400E306E030E316E336AF0
:10542800326A356A400E346E36EC2DF01A6A196A03
:105438001200785179117A117B1123E0010E7C6FEB
:1054480006D0D890783779377A377B377C2B7BAF83
:10545800F8D77851745D795175597A5176597B51DD
:10546800775908E37851745F7951755B7A51765BA7
:105478007B51775BD8907B337A33793378337C2FC1
:10548800E8D774C074F075C075F076C076F077C050
:1054980077F0120069AF0DD06D6B6E6B800E6F6F79
:1054A80067516D5D676F68516E59686F69516F59C3
:1054B800696F6CAF0DD06D6B6E6B800E6F6F6A513C
:1054C8006D5D6A6F6B516E596B6F6C516F596C6F74
:1054D800800E691B6C1B6A51675D6B5168596C5172
:1054E800695902E2D8901200D88012001B503F0B75
:1054F8005D6E5E6A000E5D24D96E020E5E20DA6E65
:1055080063EC2EF0DF6E1B2A3F0E1A603F0C1B0463
:105518003F0B5D6E5E6A000E5D24D96E020E5E2042
:10552800DA6E400E1A24E16EE26A030EE222DFCF41
:10553800E7FF1A2A400E1A24D96EDA6A030EDA2215
:10554800DF6A000CE1CF52F0E2CF53F0D9CF54F02C
:10555800DACF55F0F3CF56F0F4CF57F0F6CF58F036
:10556800F7CF59F0F8CF5AF0F5CF5BF0C4EC1CF048
:105578005BC0F5FF5AC0F8FF59C0F7FF58C0F6FFE7
:1055880057C0F4FF56C0F3FF55C0DAFF54C0D9FF27
:1055980053C0E2FF52C0E1FF5F9211006CC06EF091
:1055A800030E00016E171BE16CC067F06DC068F058
:1055B8006A6B640E696F26EC2CF06751681114E170
:1055C8002C0E6C25676F010E6D21686F010E6A6FD6
:1055D800900E696F26EC2CF06751681105E0010EFA
:1055E8006D6F6D0E6C6F6D0C010E6D6F6E0E6C6FC6
:1055F8006E0C800E01018F6F250E906F916B926B70
:10560800936B946B080E956F1F6A1A0E386E010E15
:105618009AEC2CF01E0E386E020E9AEC2CF0000E4E
:10562800306E400E316E050E326E400E336E020E35
:10563800A3EC1FF030C00FF031C010F001015E6B19
:105648005F6B1E6A1200020E2B1802E1C9EF1DF0F3
:105658002B6A27501FE120EE01F01150D926125075
:10566800DA22080EDF6E20EE02F01150D926125011
:10567800DA22300EDE6E040EDD6E11C0D9FF12C0C4
:10568800DAFF0C0EDF6E11C0D9FF12C0DAFF000E70
:10569800DB8E000C276A12008E0E776F06D0D8902A
:1056A8007233713370336F33772B736B746B756B25
:1056B8007251766F7351741175117611F0E16FC0E4
:1056C80067F070C068F071C069F077C06AF0000ECA
:1056D8006B6FE9EC26F067C06FF068C070F069C0C6
:1056E80071F0120075C06DF076C06EF077C06FF083
:1056F80078C070F06CEC28F06DC07BF06EC07CF068
:1057080075C067F076C068F077C069F078C06AF055
:1057180052EC29F067C079F068C07AF079C075F06A
:105728007AC076F07BC077F07CC078F0120041C078
:1057380047F042C048F0485004E07F0AD8A412005D
:1057480019D04750010A02E1EBEF29F0030AD8B457
:105758001200010A02E112EF26F0060AD8B412007C
:10576800770AD8B41200010AD8B41200070AD8A4DC
:10577800010A1200471C1200C27FAA7FD67FDA7F77
:10578800EA7FCA7FBE7FB67FD27FDE7FE67F637DFA
:10579800717F6A7F4C7FBF7E297F637F207FCE7FAA
:1057A800C67FB27FAE7FE27FBA7F797D01000A00B3
:1057B8006400E8031027770101FF947E000067C0AA
:1057C8006BF068C06CF005D000016B4B6C2B694B1B
:1057D8006A2B69C0F6FF6AC0F7FFF86A6BC0D9FF89
:1057E8006CC0DAFF070EF76403D00800F55005D047
:1057F800F6CFE1FFF7CFE2FFE750DF6EDF50E4E1DD
:10580800120032C039F033C03AF030C037F031C03E
:1058180038F010D039C0D9FF3AC0DAFFDF50366E01
:10582800394A3A2A37C0D9FF38C0DAFF36C0DFFF15
:10583800374A382A3406D8A035063428EBE135280B
:10584800E9E1120069516A1117E0010E6B6F04D08B
:10585800D89069376A376B2B6AAFFAD76951675D99
:105868006A51685904E36951675F6A51685BD89067
:105878006A3369336B2FF2D767C067F068C068F086
:1058880012006AA01BD013C0D9FF14C0DAFF800E23
:10589800DE1813E109C0D9FF0AC0DAFF840EDE184A
:1058A8000CE113C0D9FF14C0DAFF0C0EDF6E13C071
:1058B800D9FF14C0DAFF000EDB8E6A90659A1200D9
:1058C8006C6F00016E6B6B5114E0010E6D6F03D0AD
:1058D800D8906B376D2B6BAFFBD7D8906E376B5169
:1058E8006C5D03E36B516C5F6E81D8906B336D2FE9
:1058F800F4D76E5112009C519D119E1102E0800E4A
:105908009E1B99C08DF09AC08EF09BC08FF09CC0F2
:1059180090F09DC091F09EC092F046EC1AF08DC0B8
:1059280099F08EC09AF08FC09BF012003B6E38A49D
:1059380004D0306A3B505BEC26F038A205D0010E4B
:10594800306E3B505BEC26F06A0E3B24396E3A6AA7
:105958000F0E3A2239C0D9FF3AC0DAFF38C0DFFF4C
:105968000F0C67C0D9FF68C0DAFF6951DE1805E17E
:1059780067C067F068C068F0120067C0D9FF68C0E8
:10598800DAFF674B682BDF50ECE1676B686B12003E
:105998002D50D8A41200606A646A160E626E9F0EBB
:1059A800666E7B0E646ED08EA584A384F28E01D0C1
:1059B800608660A6FDD7010E2D6E010C547F327FE4
:1059C800947F9A7FEA7FA07FA57F5C7FB57E447F26
:1059D800177F0E7F727E7E7EA07EE27DDC7D237E39
:1059E8008D7F157EFB7E67C069F068C06AF002D0C3
:1059F800694B6A2B69C0F6FF6AC0F7FF0800F550CB
:105A0800F7E16751695D676F68516A59686F1200FD
:105A18007EC0D9FF7FC0DAFFDECF80F0DECF81F015
:105A2800DECF82F0DECF83F0800E756FA4EC17F026
:105A380075C07EF076C07FF0120067C06DF068C058
:105A48006EF008D06DC0D9FF6EC0DAFF69C0DFFF05
:105A58006D4B6E2B6B07D8A06C076B29F3E16C2993
:105A6800F1E1120030C036F031C037F008D036C04E
:105A7800D9FF37C0DAFF32C0DFFF364A372A34068B
:105A8800D8A035063428F3E13528F1E11200686F13
:105A9800080E0001696F6A6BD89068356A356A6FBD
:105AA800D890683767516A5D02E367516A5F692F6A
:105AB800F3D76A511200000EF4EC1AF030EC1FF024
:105AC800CCEC2CF0B2EC0FF0A5EC09F0200E2D6018
:105AD80001D0F8D760A22FEC28F0F4D76C6F010E34
